:1000000014C02EC02DC02CC02BC02AC029C028C0AF
:1000100027C026C025C024C023C022C021C020C0C4
:100020001FC01EC01DC01CC01BC011241FBECFE5B9
:10003000D1E0DEBFCDBF10E0A0E6B0E0EEECF1E035
:1000400002C005900D92A636B107D9F720E0A6E6CA
:10005000B0E001C01D92AC36B207E1F773D0B5C075
:10006000CFCF20916A0030916B0080916800909111
:1000700069002817390731F4C19AC098C398C29A09
:10008000C598C49A20916A0030916B0080916400F9
:100090009091650028173907E9F4809166009091E6
:1000A0006700892B69F4C19AC098C398C29AC59811
:1000B000C49A81E090E090936700809366000AC044
:1000C000C198C09AC398C29AC598C49A1092670002
:1000D0001092660020916A0030916B00809162005E
:1000E000909163002817390731F4C198C09AC39AD8
:1000F000C298C59AC49820916A0030916B00809193
:1001000060009091610028173907D9F4809166004A
:1001100090916700C198C09A892B59F4C39AC298EC
:10012000C59AC49881E090E0909367008093660040
:100130000895C398C29AC598C49A10926700109205
:10014000660008958FE387BB8CE081BB8ADF8091D6
:1001500068009091690020916A0030916B0082994B
:1001600002C0839B26C0609164007091650040913D
:100170006200509163002617370721F450936B00FB
:1001800040936A0060916A0070916B00209160005A
:10019000309161006417750721F430936B00209350
:1001A0006A0040916A0050916B004217530771F644
:1001B00007C02817390751F68091640090916500B7
:0E01C00090936B0080936A00C1CFF894FFCF3C
:0601CE0003000200010025
:00000001FF
